{"abi":[{"type":"function","name":"SignUp","inputs":[{"name":"_name","type":"string","internalType":"string"},{"name":"_age","type":"uint8","internalType":"uint8"},{"name":"_email","type":"string","internalType":"string"}],"outputs":[],"stateMutability":"nonpayable"},{"type":"function","name":"addQuantifyItems","inputs":[{"name":"_hashItems","type":"string","internalType":"string"},{"name":"_addQuantityItems","type":"uint256","internalType":"uint256"}],"outputs":[],"stateMutability":"nonpayable"},{"type":"function","name":"buyerDeals","inputs":[{"name":"","type":"address","internalType":"address"},{"name":"","type":"uint256","internalType":"uint256"}],"outputs":[{"name":"","type":"uint256","internalType":"uint256"}],"stateMutability":"view"},{"type":"function","name":"completeDeal","inputs":[{"name":"_dealId","type":"uint256","internalType":"uint256"}],"outputs":[],"stateMutability":"nonpayable"},{"type":"function","name":"confirmSellerDeal","inputs":[{"name":"_dealId","type":"uint256","internalType":"uint256"}],"outputs":[],"stateMutability":"nonpayable"},{"type":"function","name":"createDeal","inputs":[{"name":"_productId","type":"uint256","internalType":"uint256"},{"name":"_amount","type":"uint256","internalType":"uint256"}],"outputs":[],"stateMutability":"payable"},{"type":"function","name":"createSeller","inputs":[{"name":"_shopName","type":"string","internalType":"string"},{"name":"_typeItemsNameSell","type":"string","internalType":"string"},{"name":"_email","type":"string","internalType":"string"}],"outputs":[],"stateMutability":"nonpayable"},{"type":"function","name":"dealId","inputs":[],"outputs":[{"name":"","type":"uint256","internalType":"uint256"}],"stateMutability":"view"},{"type":"function","name":"deals","inputs":[{"name":"","type":"uint256","internalType":"uint256"}],"outputs":[{"name":"buyer","type":"address","internalType":"address"},{"name":"seller","type":"address","internalType":"address"},{"name":"productId","type":"uint256","internalType":"uint256"},{"name":"amount","type":"uint256","internalType":"uint256"},{"name":"value","type":"uint256","internalType":"uint256"},{"name":"buyerConfirmed","type":"bool","internalType":"bool"},{"name":"sellerConfirmed","type":"bool","internalType":"bool"},{"name":"isCompleted","type":"bool","internalType":"bool"}],"stateMutability":"view"},{"type":"function","name":"quantityPerItem","inputs":[{"name":"","type":"string","internalType":"string"}],"outputs":[{"name":"","type":"uint256","internalType":"uint256"}],"stateMutability":"view"},{"type":"function","name":"sellers","inputs":[{"name":"","type":"address","internalType":"address"}],"outputs":[{"name":"shopName","type":"string","internalType":"string"},{"name":"typeItemsNameSell","type":"string","internalType":"string"},{"name":"email","type":"string","internalType":"string"},{"name":"cerSellerId","type":"uint256","internalType":"uint256"},{"name":"addressWallet","type":"address","internalType":"address"},{"name":"rating","type":"uint8","internalType":"uint8"}],"stateMutability":"view"},{"type":"function","name":"uploadItems","inputs":[{"name":"_hashItems","type":"string","internalType":"string"},{"name":"_quantityPerItem","type":"uint256","internalType":"uint256"}],"outputs":[],"stateMutability":"nonpayable"},{"type":"function","name":"users","inputs":[{"name":"","type":"address","internalType":"address"}],"outputs":[{"name":"name","type":"string","internalType":"string"},{"name":"email","type":"string","internalType":"string"},{"name":"age","type":"uint8","internalType":"uint8"},{"name":"cerId","type":"uint256","internalType":"uint256"},{"name":"addressWallet","type":"address","internalType":"address"}],"stateMutability":"view"},{"type":"event","name":"DealCompleted","inputs":[{"name":"dealId","type":"uint256","indexed":false,"internalType":"uint256"},{"name":"amount","type":"uint256","indexed":false,"internalType":"uint256"}],"anonymous":false},{"type":"event","name":"DealConfirmed","inputs":[{"name":"dealId","type":"uint256","indexed":false,"internalType":"uint256"}],"anonymous":false},{"type":"event","name":"DealCreated","inputs":[{"name":"dealId","type":"uint256","indexed":false,"internalType":"uint256"},{"name":"buyer","type":"address","indexed":false,"internalType":"address"},{"name":"productId","type":"uint256","indexed":false,"internalType":"uint256"},{"name":"amount","type":"uint256","indexed":false,"internalType":"uint256"},{"name":"value","type":"uint256","indexed":false,"internalType":"uint256"}],"anonymous":false},{"type":"event","name":"NewUser","inputs":[{"name":"_address","type":"address","indexed":false,"internalType":"address"}],"anonymous":false}],"bytecode":{"object":"0x6080604052612710600055612710600455348015601b57600080fd5b5061180a8061002b6000396000f3fe6080604052600436106100c25760003560e01c8063985f544d1161007f578063ba46404811610059578063ba464048146102c9578063d1ef59a3146102df578063d6380257146102ff578063dec3456b1461031f57600080fd5b8063985f544d14610265578063a87430ba14610285578063b6c1b827146102b657600080fd5b806302cb5b65146100c757806303988f84146100e95780630fb1193c146101ad5780631db7c015146101cd57806363302e6e146102135780636d47ab7214610233575b600080fd5b3480156100d357600080fd5b506100e76100e2366004611264565b61033f565b005b3480156100f557600080fd5b5061015c6101043660046112e5565b6007602052600090815260409020805460018201546002830154600384015460048501546005909501546001600160a01b039485169593909416939192909160ff808216916101008104821691620100009091041688565b604080516001600160a01b03998a1681529890971660208901529587019490945260608601929092526080850152151560a0840152151560c0830152151560e0820152610100015b60405180910390f35b3480156101b957600080fd5b506100e76101c83660046112e5565b610436565b3480156101d957600080fd5b506102056101e83660046112fe565b805160208183018101805160028252928201919093012091525481565b6040519081526020016101a4565b34801561021f57600080fd5b5061020561022e366004611357565b61062c565b34801561023f57600080fd5b5061025361024e366004611381565b61065d565b6040516101a4969594939291906113f3565b34801561027157600080fd5b506100e7610280366004611457565b610838565b34801561029157600080fd5b506102a56102a0366004611381565b610916565b6040516101a495949392919061149c565b6100e76102c43660046114eb565b610a63565b3480156102d557600080fd5b5061020560065481565b3480156102eb57600080fd5b506100e76102fa36600461150d565b610caa565b34801561030b57600080fd5b506100e761031a366004611457565b610d9b565b34801561032b57600080fd5b506100e761033a3660046112e5565b610e2e565b6040805160a081018252848152602080820184905260ff851682840152600454606083015233608083018190526000908152600590915291909120815181906103889082611613565b506020820151600182019061039d9082611613565b50604082015160028201805460ff191660ff90921691909117905560608201516003820155608090910151600491820180546001600160a01b0319166001600160a01b0390921691909117905580549060006103f8836116e8565b90915550506040513381527f7ee9b70bf129b91a237044ce07c93c79f5562b96b53c04f7edaf7c9d6711f3d8906020015b60405180910390a1505050565b6000818152600760205260409020600101546001600160a01b0316156104a35760405162461bcd60e51b815260206004820152601860248201527f53656c6c657220616c726561647920636f6e6669726d6564000000000000000060448201526064015b60405180910390fd5b600081815260076020526040902054336001600160a01b03909116036105175760405162461bcd60e51b815260206004820152602360248201527f596f752063616e6e6f7420626520626f746820627579657220616e642073656c6044820152623632b960e91b606482015260840161049a565b336000908152600160209081526040808320848452600790925282206002015460059091018054909190811061054f5761054f611701565b9060005260206000200180546105649061158b565b9050116105bd5760405162461bcd60e51b815260206004820152602160248201527f53656c6c657220646f6573206e6f74206861766520746869732070726f6475636044820152601d60fa1b606482015260840161049a565b600081815260076020526040908190206001810180546001600160a01b03191633179055600501805461ff001916610100179055517f9df29a48d557958defdbeb91dda0116b443663f2a358ab8947609973c5a7b51c906106219083815260200190565b60405180910390a150565b6008602052816000526040600020818154811061064857600080fd5b90600052602060002001600091509150505481565b6001602052600090815260409020805481906106789061158b565b80601f01602080910402602001604051908101604052809291908181526020018280546106a49061158b565b80156106f15780601f106106c6576101008083540402835291602001916106f1565b820191906000526020600020905b8154815290600101906020018083116106d457829003601f168201915b5050505050908060010180546107069061158b565b80601f01602080910402602001604051908101604052809291908181526020018280546107329061158b565b801561077f5780601f106107545761010080835404028352916020019161077f565b820191906000526020600020905b81548152906001019060200180831161076257829003601f168201915b5050505050908060020180546107949061158b565b80601f01602080910402602001604051908101604052809291908181526020018280546107c09061158b565b801561080d5780601f106107e25761010080835404028352916020019161080d565b820191906000526020600020905b8154815290600101906020018083116107f057829003601f168201915b5050505060038301546004840154600690940154929390926001600160a01b03909116915060ff1686565b60005b3360009081526001602052604090206005015481101561091157826040516020016108669190611717565b60408051601f198184030181529181528151602092830120336000908152600190935291206005018054839081106108a0576108a0611701565b906000526020600020016040516020016108ba9190611733565b604051602081830303815290604052805190602001200361090957816002846040516108e69190611717565b9081526020016040518091039020600082825461090391906117a8565b90915550505b60010161083b565b505050565b6005602052600090815260409020805481906109319061158b565b80601f016020809104026020016040519081016040528092919081815260200182805461095d9061158b565b80156109aa5780601f1061097f576101008083540402835291602001916109aa565b820191906000526020600020905b81548152906001019060200180831161098d57829003601f168201915b5050505050908060010180546109bf9061158b565b80601f01602080910402602001604051908101604052809291908181526020018280546109eb9061158b565b8015610a385780601f10610a0d57610100808354040283529160200191610a38565b820191906000526020600020905b815481529060010190602001808311610a1b57829003601f168201915b5050505060028301546003840154600490940154929360ff909116929091506001600160a01b031685565b3360009081526001602052604090206005018054829160029185908110610a8c57610a8c611701565b90600052602060002001604051610aa39190611733565b9081526020016040518091039020541015610af35760405162461bcd60e51b815260206004820152601060248201526f4e6f7420656e6f7567682073746f636b60801b604482015260640161049a565b60003411610b435760405162461bcd60e51b815260206004820152601c60248201527f4d7573742073656e642045544820746f20637265617465206465616c00000000604482015260640161049a565b6006805460009182610b54836116e8565b9091555060408051610100808201835233808352600060208085018281528587018b8152606087018b8152346080890181815260a08a0187815260c08b0188815260e08c018981528e8a52600789528d8a209c518d546001600160a01b039182166001600160a01b0319918216178f55985160018f810180549290931691909a16179055955160028d0155935160038c0155905160048b01555160059099018054925193511515620100000262ff00001994151590990261ff00199a15159a909a1661ffff199093169290921798909817919091169590951790945582825260088152858220805494850181558252902090910184905591519293507fdbed7d56dc9bc6aeb14df6b8c0becfa98acd06d60cc5200f0ca43bc73cc46ae8926104299285929091889188919485526001600160a01b0393909316602085015260408401919091526060830152608082015260a00190565b6040805160e081018252848152602080820185905281830184905260008054606084810191909152336080850181905260a0850182905260c08501839052825260019092529290922081518190610d019082611613565b5060208201516001820190610d169082611613565b5060408201516002820190610d2b9082611613565b506060820151600382015560808201516004820180546001600160a01b0319166001600160a01b0390921691909117905560a08201518051610d779160058401916020909101906110fa565b5060c091909101516006909101805460ff191660ff90921691909117905550505050565b336000908152600160208181526040832060050180549283018155835290912001610dc68382611613565b5080600283604051610dd89190611717565b908152604080519182900360209081018320939093553360009081526003909352822090610e07908590611717565b908152604051908190036020019020805460ff9290921660ff199092169190911790555050565b6000818152600760205260409020546001600160a01b03163314610e8c5760405162461bcd60e51b81526020600482015260156024820152742cb7ba9030b932903737ba103a343290313abcb2b960591b604482015260640161049a565b60008181526007602052604090206005015460ff1615610eee5760405162461bcd60e51b815260206004820152601f60248201527f4465616c20616c726561647920636f6e6669726d656420627920627579657200604482015260640161049a565b60008181526007602052604090206005015460ff610100909104161515600114610f645760405162461bcd60e51b815260206004820152602160248201527f53656c6c657220686173206e6f7420636f6e6669726d656420746865206465616044820152601b60fa1b606482015260840161049a565b60008181526007602052604090206005015462010000900460ff1615610fc55760405162461bcd60e51b81526020600482015260166024820152751119585b08185b1c9958591e4818dbdb5c1b195d195960521b604482015260640161049a565b60008181526007602052604080822060058101805462ff00ff191662010001179055600181015460049091015491516001600160a01b03909116926108fc831502929190818181858888f19350505050158015611026573d6000803e3d6000fd5b50600081815260076020818152604080842060038101546001808301546001600160a01b03168752845291852094869052929091526002918201546005909301805491939091811061107a5761107a611701565b906000526020600020016040516110919190611733565b908152602001604051809103902060008282546110ae91906117c1565b9091555050600081815260076020908152604091829020600401548251848152918201527fd78ea1895a54fef557b21f240ae42cdf7bed32528d9d4f42f81458e17a1db4829101610621565b828054828255906000526020600020908101928215611140579160200282015b8281111561114057825182906111309082611613565b509160200191906001019061111a565b5061114c929150611150565b5090565b8082111561114c576000611164828261116d565b50600101611150565b5080546111799061158b565b6000825580601f10611189575050565b601f0160209004906000526020600020908101906111a791906111aa565b50565b5b8082111561114c57600081556001016111ab565b634e487b7160e01b600052604160045260246000fd5b600082601f8301126111e657600080fd5b813567ffffffffffffffff811115611200576112006111bf565b604051601f8201601f19908116603f0116810167ffffffffffffffff8111828210171561122f5761122f6111bf565b60405281815283820160200185101561124757600080fd5b816020850160208301376000918101602001919091529392505050565b60008060006060848603121561127957600080fd5b833567ffffffffffffffff81111561129057600080fd5b61129c868287016111d5565b935050602084013560ff811681146112b357600080fd5b9150604084013567ffffffffffffffff8111156112cf57600080fd5b6112db868287016111d5565b9150509250925092565b6000602082840312156112f757600080fd5b5035919050565b60006020828403121561131057600080fd5b813567ffffffffffffffff81111561132757600080fd5b611333848285016111d5565b949350505050565b80356001600160a01b038116811461135257600080fd5b919050565b6000806040838503121561136a57600080fd5b6113738361133b565b946020939093013593505050565b60006020828403121561139357600080fd5b61139c8261133b565b9392505050565b60005b838110156113be5781810151838201526020016113a6565b50506000910152565b600081518084526113df8160208601602086016113a3565b601f01601f19169290920160200192915050565b60c08152600061140660c08301896113c7565b828103602084015261141881896113c7565b9050828103604084015261142c81886113c7565b606084019690965250506001600160a01b0392909216608083015260ff1660a0909101529392505050565b6000806040838503121561146a57600080fd5b823567ffffffffffffffff81111561148157600080fd5b61148d858286016111d5565b95602094909401359450505050565b60a0815260006114af60a08301886113c7565b82810360208401526114c181886113c7565b60ff969096166040840152505060608101929092526001600160a01b031660809091015292915050565b600080604083850312156114fe57600080fd5b50508035926020909101359150565b60008060006060848603121561152257600080fd5b833567ffffffffffffffff81111561153957600080fd5b611545868287016111d5565b935050602084013567ffffffffffffffff81111561156257600080fd5b61156e868287016111d5565b925050604084013567ffffffffffffffff8111156112cf57600080fd5b600181811c9082168061159f57607f821691505b6020821081036115bf57634e487b7160e01b600052602260045260246000fd5b50919050565b601f82111561091157806000526020600020601f840160051c810160208510156115ec5750805b601f840160051c820191505b8181101561160c57600081556001016115f8565b5050505050565b815167ffffffffffffffff81111561162d5761162d6111bf565b6116418161163b845461158b565b846115c5565b6020601f821160018114611675576000831561165d5750848201515b600019600385901b1c1916600184901b17845561160c565b600084815260208120601f198516915b828110156116a55787850151825560209485019460019092019101611685565b50848210156116c35786840151600019600387901b60f8161c191681555b50505050600190811b01905550565b634e487b7160e01b600052601160045260246000fd5b6000600182016116fa576116fa6116d2565b5060010190565b634e487b7160e01b600052603260045260246000fd5b600082516117298184602087016113a3565b9190910192915050565b60008083546117418161158b565b600182168015611758576001811461176d5761179d565b60ff198316865281151582028601935061179d565b86600052602060002060005b8381101561179557815488820152600190910190602001611779565b505081860193505b509195945050505050565b808201808211156117bb576117bb6116d2565b92915050565b818103818111156117bb576117bb6116d256fea2646970667358221220c10e274d4d25f14dbff31c71b8b1efb34d290ad78b79b2abfe593a3bd04cd35864736f6c634300081a0033","linkReferences":{}},"methodIdentifiers":{"SignUp(string,uint8,string)":"02cb5b65","addQuantifyItems(string,uint256)":"985f544d","buyerDeals(address,uint256)":"63302e6e","completeDeal(uint256)":"dec3456b","confirmSellerDeal(uint256)":"0fb1193c","createDeal(uint256,uint256)":"b6c1b827","createSeller(string,string,string)":"d1ef59a3","dealId()":"ba464048","deals(uint256)":"03988f84","quantityPerItem(string)":"1db7c015","sellers(address)":"6d47ab72","uploadItems(string,uint256)":"d6380257","users(address)":"a87430ba"},"id":0}