{"abi":[{"type":"constructor","inputs":[{"name":"name","type":"string","internalType":"string"},{"name":"symbol","type":"string","internalType":"string"}],"stateMutability":"nonpayable"},{"type":"function","name":"approve","inputs":[{"name":"to","type":"address","internalType":"address"},{"name":"tokenId","type":"uint256","internalType":"uint256"}],"outputs":[],"stateMutability":"nonpayable"},{"type":"function","name":"balanceOf","inputs":[{"name":"owner","type":"address","internalType":"address"}],"outputs":[{"name":"","type":"uint256","internalType":"uint256"}],"stateMutability":"view"},{"type":"function","name":"createProfile","inputs":[{"name":"_patientId","type":"uint256","internalType":"uint256"},{"name":"_tokenURI","type":"string","internalType":"string"}],"outputs":[],"stateMutability":"nonpayable"},{"type":"function","name":"getApproved","inputs":[{"name":"tokenId","type":"uint256","internalType":"uint256"}],"outputs":[{"name":"","type":"address","internalType":"address"}],"stateMutability":"view"},{"type":"function","name":"isApprovedForAll","inputs":[{"name":"owner","type":"address","internalType":"address"},{"name":"operator","type":"address","internalType":"address"}],"outputs":[{"name":"","type":"bool","internalType":"bool"}],"stateMutability":"view"},{"type":"function","name":"name","inputs":[],"outputs":[{"name":"","type":"string","internalType":"string"}],"stateMutability":"view"},{"type":"function","name":"ownerOf","inputs":[{"name":"tokenId","type":"uint256","internalType":"uint256"}],"outputs":[{"name":"","type":"address","internalType":"address"}],"stateMutability":"view"},{"type":"function","name":"safeTransferFrom","inputs":[{"name":"from","type":"address","internalType":"address"},{"name":"to","type":"address","internalType":"address"},{"name":"tokenId","type":"uint256","internalType":"uint256"}],"outputs":[],"stateMutability":"nonpayable"},{"type":"function","name":"safeTransferFrom","inputs":[{"name":"from","type":"address","internalType":"address"},{"name":"to","type":"address","internalType":"address"},{"name":"tokenId","type":"uint256","internalType":"uint256"},{"name":"data","type":"bytes","internalType":"bytes"}],"outputs":[],"stateMutability":"nonpayable"},{"type":"function","name":"setApprovalForAll","inputs":[{"name":"operator","type":"address","internalType":"address"},{"name":"approved","type":"bool","internalType":"bool"}],"outputs":[],"stateMutability":"nonpayable"},{"type":"function","name":"supportsInterface","inputs":[{"name":"interfaceId","type":"bytes4","internalType":"bytes4"}],"outputs":[{"name":"","type":"bool","internalType":"bool"}],"stateMutability":"view"},{"type":"function","name":"symbol","inputs":[],"outputs":[{"name":"","type":"string","internalType":"string"}],"stateMutability":"view"},{"type":"function","name":"tokenURI","inputs":[{"name":"tokenId","type":"uint256","internalType":"uint256"}],"outputs":[{"name":"","type":"string","internalType":"string"}],"stateMutability":"view"},{"type":"function","name":"transferFrom","inputs":[{"name":"from","type":"address","internalType":"address"},{"name":"to","type":"address","internalType":"address"},{"name":"tokenId","type":"uint256","internalType":"uint256"}],"outputs":[],"stateMutability":"nonpayable"},{"type":"event","name":"Approval","inputs":[{"name":"owner","type":"address","indexed":true,"internalType":"address"},{"name":"approved","type":"address","indexed":true,"internalType":"address"},{"name":"tokenId","type":"uint256","indexed":true,"internalType":"uint256"}],"anonymous":false},{"type":"event","name":"ApprovalForAll","inputs":[{"name":"owner","type":"address","indexed":true,"internalType":"address"},{"name":"operator","type":"address","indexed":true,"internalType":"address"},{"name":"approved","type":"bool","indexed":false,"internalType":"bool"}],"anonymous":false},{"type":"event","name":"Transfer","inputs":[{"name":"from","type":"address","indexed":true,"internalType":"address"},{"name":"to","type":"address","indexed":true,"internalType":"address"},{"name":"tokenId","type":"uint256","indexed":true,"internalType":"uint256"}],"anonymous":false}],"bytecode":{"object":"0x608060405234801561001057600080fd5b506040516119c23803806119c283398101604081905261002f9161010d565b8181600061003d83826101ff565b50600161004a82826101ff565b50505050506102bd565b634e487b7160e01b600052604160045260246000fd5b600082601f83011261007b57600080fd5b81516001600160401b0381111561009457610094610054565b604051601f8201601f19908116603f011681016001600160401b03811182821017156100c2576100c2610054565b6040528181528382016020018510156100da57600080fd5b60005b828110156100f9576020818601810151838301820152016100dd565b506000918101602001919091529392505050565b6000806040838503121561012057600080fd5b82516001600160401b0381111561013657600080fd5b6101428582860161006a565b602085015190935090506001600160401b0381111561016057600080fd5b61016c8582860161006a565b9150509250929050565b600181811c9082168061018a57607f821691505b6020821081036101aa57634e487b7160e01b600052602260045260246000fd5b50919050565b601f8211156101fa57806000526020600020601f840160051c810160208510156101d75750805b601f840160051c820191505b818110156101f757600081556001016101e3565b50505b505050565b81516001600160401b0381111561021857610218610054565b61022c816102268454610176565b846101b0565b6020601f82116001811461026057600083156102485750848201515b600019600385901b1c1916600184901b1784556101f7565b600084815260208120601f198516915b828110156102905787850151825560209485019460019092019101610270565b50848210156102ae5786840151600019600387901b60f8161c191681555b50505050600190811b01905550565b6116f6806102cc6000396000f3fe608060405234801561001057600080fd5b50600436106100ea5760003560e01c80636352211e1161008c578063a22cb46511610066578063a22cb465146101e1578063b88d4fde146101f4578063c87b56dd14610207578063e985e9c51461021a57600080fd5b80636352211e146101a557806370a08231146101b857806395d89b41146101d957600080fd5b8063095ea7b3116100c8578063095ea7b31461015757806323b872dd1461016c57806342842e0e1461017f57806345946a231461019257600080fd5b806301ffc9a7146100ef57806306fdde0314610117578063081812fc1461012c575b600080fd5b6101026100fd3660046110c3565b61022d565b60405190151581526020015b60405180910390f35b61011f61027f565b60405161010e9190611130565b61013f61013a366004611143565b610311565b6040516001600160a01b03909116815260200161010e565b61016a610165366004611178565b610338565b005b61016a61017a3660046111a2565b610452565b61016a61018d3660046111a2565b610483565b61016a6101a036600461126f565b61049e565b61013f6101b3366004611143565b6104b6565b6101cb6101c63660046112ca565b610516565b60405190815260200161010e565b61011f61059c565b61016a6101ef3660046112e5565b6105ab565b61016a610202366004611321565b6105b6565b61011f610215366004611143565b6105ee565b61010261022836600461139d565b6106fe565b60006001600160e01b031982166380ac58cd60e01b148061025e57506001600160e01b03198216635b5e139f60e01b145b8061027957506301ffc9a760e01b6001600160e01b03198316145b92915050565b60606000805461028e906113d0565b80601f01602080910402602001604051908101604052809291908181526020018280546102ba906113d0565b80156103075780601f106102dc57610100808354040283529160200191610307565b820191906000526020600020905b8154815290600101906020018083116102ea57829003601f168201915b5050505050905090565b600061031c8261072c565b506000908152600460205260409020546001600160a01b031690565b6000610343826104b6565b9050806001600160a01b0316836001600160a01b0316036103b55760405162461bcd60e51b815260206004820152602160248201527f4552433732313a20617070726f76616c20746f2063757272656e74206f776e656044820152603960f91b60648201526084015b60405180910390fd5b336001600160a01b03821614806103d157506103d181336106fe565b6104435760405162461bcd60e51b815260206004820152603d60248201527f4552433732313a20617070726f76652063616c6c6572206973206e6f7420746f60448201527f6b656e206f776e6572206f7220617070726f76656420666f7220616c6c00000060648201526084016103ac565b61044d838361078e565b505050565b61045c33826107fc565b6104785760405162461bcd60e51b81526004016103ac9061140a565b61044d83838361085a565b61044d838383604051806020016040528060008152506105b6565b6104a833836109cb565b6104b282826109e5565b5050565b6000818152600260205260408120546001600160a01b0316806102795760405162461bcd60e51b8152602060048201526018602482015277115490cdcc8c4e881a5b9d985b1a59081d1bdad95b88125160421b60448201526064016103ac565b60006001600160a01b0382166105805760405162461bcd60e51b815260206004820152602960248201527f4552433732313a2061646472657373207a65726f206973206e6f7420612076616044820152683634b21037bbb732b960b91b60648201526084016103ac565b506001600160a01b031660009081526003602052604090205490565b60606001805461028e906113d0565b6104b2338383610a78565b6105c033836107fc565b6105dc5760405162461bcd60e51b81526004016103ac9061140a565b6105e884848484610b46565b50505050565b60606105f98261072c565b60008281526006602052604081208054610612906113d0565b80601f016020809104026020016040519081016040528092919081815260200182805461063e906113d0565b801561068b5780601f106106605761010080835404028352916020019161068b565b820191906000526020600020905b81548152906001019060200180831161066e57829003601f168201915b5050505050905060006106a960408051602081019091526000815290565b905080516000036106bb575092915050565b8151156106ed5780826040516020016106d5929190611457565b60405160208183030381529060405292505050919050565b6106f684610b79565b949350505050565b6001600160a01b03918216600090815260056020908152604080832093909416825291909152205460ff1690565b6000818152600260205260409020546001600160a01b031661078b5760405162461bcd60e51b8152602060048201526018602482015277115490cdcc8c4e881a5b9d985b1a59081d1bdad95b88125160421b60448201526064016103ac565b50565b600081815260046020526040902080546001600160a01b0319166001600160a01b03841690811790915581906107c3826104b6565b6001600160a01b03167f8c5be1e5ebec7d5bd14f71427d1e84f3dd0314c0f7b2291e5b200ac8c7c3b92560405160405180910390a45050565b600080610808836104b6565b9050806001600160a01b0316846001600160a01b0316148061082f575061082f81856106fe565b806106f65750836001600160a01b031661084884610311565b6001600160a01b031614949350505050565b826001600160a01b031661086d826104b6565b6001600160a01b0316146108935760405162461bcd60e51b81526004016103ac90611486565b6001600160a01b0382166108f55760405162461bcd60e51b8152602060048201526024808201527f4552433732313a207472616e7366657220746f20746865207a65726f206164646044820152637265737360e01b60648201526084016103ac565b6109028383836001610bed565b826001600160a01b0316610915826104b6565b6001600160a01b03161461093b5760405162461bcd60e51b81526004016103ac90611486565b600081815260046020908152604080832080546001600160a01b03199081169091556001600160a01b0387811680865260038552838620805460001901905590871680865283862080546001019055868652600290945282852080549092168417909155905184937fddf252ad1be2c89b69c2b068fc378daa952ba7f163c4a11628f55a4df523b3ef91a4505050565b6104b2828260405180602001604052806000815250610c75565b6000828152600260205260409020546001600160a01b0316610a605760405162461bcd60e51b815260206004820152602e60248201527f45524337323155524953746f726167653a2055524920736574206f66206e6f6e60448201526d32bc34b9ba32b73a103a37b5b2b760911b60648201526084016103ac565b600082815260066020526040902061044d8282611519565b816001600160a01b0316836001600160a01b031603610ad95760405162461bcd60e51b815260206004820152601960248201527f4552433732313a20617070726f766520746f2063616c6c65720000000000000060448201526064016103ac565b6001600160a01b03838116600081815260056020908152604080832094871680845294825291829020805460ff191686151590811790915591519182527f17307eab39ab6107e8899845ad3d59bd9653f200f220920489ca2b5937696c31910160405180910390a3505050565b610b5184848461085a565b610b5d84848484610ca8565b6105e85760405162461bcd60e51b81526004016103ac906115d8565b6060610b848261072c565b6000610b9b60408051602081019091526000815290565b90506000815111610bbb5760405180602001604052806000815250610be6565b80610bc584610da9565b604051602001610bd6929190611457565b6040516020818303038152906040525b9392505050565b60018111156105e8576001600160a01b03841615610c33576001600160a01b03841660009081526003602052604081208054839290610c2d908490611640565b90915550505b6001600160a01b038316156105e8576001600160a01b03831660009081526003602052604081208054839290610c6a908490611653565b909155505050505050565b610c7f8383610e3c565b610c8c6000848484610ca8565b61044d5760405162461bcd60e51b81526004016103ac906115d8565b60006001600160a01b0384163b15610d9e57604051630a85bd0160e11b81526001600160a01b0385169063150b7a0290610cec903390899088908890600401611666565b6020604051808303816000875af1925050508015610d27575060408051601f3d908101601f19168201909252610d24918101906116a3565b60015b610d84573d808015610d55576040519150601f19603f3d011682016040523d82523d6000602084013e610d5a565b606091505b508051600003610d7c5760405162461bcd60e51b81526004016103ac906115d8565b805181602001fd5b6001600160e01b031916630a85bd0160e11b1490506106f6565b506001949350505050565b60606000610db683610fd5565b600101905060008167ffffffffffffffff811115610dd657610dd66111df565b6040519080825280601f01601f191660200182016040528015610e00576020820181803683370190505b5090508181016020015b600019016f181899199a1a9b1b9c1cb0b131b232b360811b600a86061a8153600a8504945084610e0a57509392505050565b6001600160a01b038216610e925760405162461bcd60e51b815260206004820181905260248201527f4552433732313a206d696e7420746f20746865207a65726f206164647265737360448201526064016103ac565b6000818152600260205260409020546001600160a01b031615610ef75760405162461bcd60e51b815260206004820152601c60248201527f4552433732313a20746f6b656e20616c7265616479206d696e7465640000000060448201526064016103ac565b610f05600083836001610bed565b6000818152600260205260409020546001600160a01b031615610f6a5760405162461bcd60e51b815260206004820152601c60248201527f4552433732313a20746f6b656e20616c7265616479206d696e7465640000000060448201526064016103ac565b6001600160a01b038216600081815260036020908152604080832080546001019055848352600290915280822080546001600160a01b0319168417905551839291907fddf252ad1be2c89b69c2b068fc378daa952ba7f163c4a11628f55a4df523b3ef908290a45050565b60008072184f03e93ff9f4daa797ed6e38ed64bf6a1f0160401b83106110145772184f03e93ff9f4daa797ed6e38ed64bf6a1f0160401b830492506040015b6d04ee2d6d415b85acef81000000008310611040576d04ee2d6d415b85acef8100000000830492506020015b662386f26fc10000831061105e57662386f26fc10000830492506010015b6305f5e1008310611076576305f5e100830492506008015b612710831061108a57612710830492506004015b6064831061109c576064830492506002015b600a83106102795760010192915050565b6001600160e01b03198116811461078b57600080fd5b6000602082840312156110d557600080fd5b8135610be6816110ad565b60005b838110156110fb5781810151838201526020016110e3565b50506000910152565b6000815180845261111c8160208601602086016110e0565b601f01601f19169290920160200192915050565b602081526000610be66020830184611104565b60006020828403121561115557600080fd5b5035919050565b80356001600160a01b038116811461117357600080fd5b919050565b6000806040838503121561118b57600080fd5b6111948361115c565b946020939093013593505050565b6000806000606084860312156111b757600080fd5b6111c08461115c565b92506111ce6020850161115c565b929592945050506040919091013590565b634e487b7160e01b600052604160045260246000fd5b60008067ffffffffffffffff841115611210576112106111df565b50604051601f19601f85018116603f0116810181811067ffffffffffffffff8211171561123f5761123f6111df565b60405283815290508082840185101561125757600080fd5b83836020830137600060208583010152509392505050565b6000806040838503121561128257600080fd5b82359150602083013567ffffffffffffffff8111156112a057600080fd5b8301601f810185136112b157600080fd5b6112c0858235602084016111f5565b9150509250929050565b6000602082840312156112dc57600080fd5b610be68261115c565b600080604083850312156112f857600080fd5b6113018361115c565b91506020830135801515811461131657600080fd5b809150509250929050565b6000806000806080858703121561133757600080fd5b6113408561115c565b935061134e6020860161115c565b925060408501359150606085013567ffffffffffffffff81111561137157600080fd5b8501601f8101871361138257600080fd5b611391878235602084016111f5565b91505092959194509250565b600080604083850312156113b057600080fd5b6113b98361115c565b91506113c76020840161115c565b90509250929050565b600181811c908216806113e457607f821691505b60208210810361140457634e487b7160e01b600052602260045260246000fd5b50919050565b6020808252602d908201527f4552433732313a2063616c6c6572206973206e6f7420746f6b656e206f776e6560408201526c1c881bdc88185c1c1c9bdd9959609a1b606082015260800190565b600083516114698184602088016110e0565b83519083019061147d8183602088016110e0565b01949350505050565b60208082526025908201527f4552433732313a207472616e736665722066726f6d20696e636f72726563742060408201526437bbb732b960d91b606082015260800190565b601f82111561044d57806000526020600020601f840160051c810160208510156114f25750805b601f840160051c820191505b8181101561151257600081556001016114fe565b5050505050565b815167ffffffffffffffff811115611533576115336111df565b6115478161154184546113d0565b846114cb565b6020601f82116001811461157b57600083156115635750848201515b600019600385901b1c1916600184901b178455611512565b600084815260208120601f198516915b828110156115ab578785015182556020948501946001909201910161158b565b50848210156115c95786840151600019600387901b60f8161c191681555b50505050600190811b01905550565b60208082526032908201527f4552433732313a207472616e7366657220746f206e6f6e20455243373231526560408201527131b2b4bb32b91034b6b83632b6b2b73a32b960711b606082015260800190565b634e487b7160e01b600052601160045260246000fd5b818103818111156102795761027961162a565b808201808211156102795761027961162a565b6001600160a01b038581168252841660208201526040810183905260806060820181905260009061169990830184611104565b9695505050505050565b6000602082840312156116b557600080fd5b8151610be6816110ad56fea2646970667358221220f1eaa08b125d5584051a185b47c512d3a94f09ffb2a994f39379238487a6e0d664736f6c634300081a0033","linkReferences":{}},"methodIdentifiers":{"approve(address,uint256)":"095ea7b3","balanceOf(address)":"70a08231","createProfile(uint256,string)":"45946a23","getApproved(uint256)":"081812fc","isApprovedForAll(address,address)":"e985e9c5","name()":"06fdde03","ownerOf(uint256)":"6352211e","safeTransferFrom(address,address,uint256)":"42842e0e","safeTransferFrom(address,address,uint256,bytes)":"b88d4fde","setApprovalForAll(address,bool)":"a22cb465","supportsInterface(bytes4)":"01ffc9a7","symbol()":"95d89b41","tokenURI(uint256)":"c87b56dd","transferFrom(address,address,uint256)":"23b872dd"},"id":31}