{"abi":[{"type":"function","name":"SignUp","inputs":[{"name":"_name","type":"string","internalType":"string"},{"name":"_age","type":"uint8","internalType":"uint8"},{"name":"_email","type":"string","internalType":"string"}],"outputs":[],"stateMutability":"nonpayable"},{"type":"function","name":"addQuantifyItems","inputs":[{"name":"_hashItems","type":"string","internalType":"string"},{"name":"_addQuantityItems","type":"uint256","internalType":"uint256"}],"outputs":[],"stateMutability":"nonpayable"},{"type":"function","name":"buyerDeals","inputs":[{"name":"","type":"address","internalType":"address"},{"name":"","type":"uint256","internalType":"uint256"}],"outputs":[{"name":"","type":"uint256","internalType":"uint256"}],"stateMutability":"view"},{"type":"function","name":"completeDeal","inputs":[{"name":"_dealId","type":"uint256","internalType":"uint256"}],"outputs":[],"stateMutability":"nonpayable"},{"type":"function","name":"confirmBuyerDeal","inputs":[{"name":"_dealId","type":"uint256","internalType":"uint256"}],"outputs":[],"stateMutability":"nonpayable"},{"type":"function","name":"confirmSellerDeal","inputs":[{"name":"_dealId","type":"uint256","internalType":"uint256"}],"outputs":[],"stateMutability":"nonpayable"},{"type":"function","name":"createDeal","inputs":[{"name":"_productId","type":"uint256","internalType":"uint256"},{"name":"_amount","type":"uint256","internalType":"uint256"}],"outputs":[],"stateMutability":"nonpayable"},{"type":"function","name":"createSeller","inputs":[{"name":"_shopName","type":"string","internalType":"string"},{"name":"_typeItemsNameSell","type":"string","internalType":"string"},{"name":"_email","type":"string","internalType":"string"}],"outputs":[],"stateMutability":"nonpayable"},{"type":"function","name":"dealId","inputs":[],"outputs":[{"name":"","type":"uint256","internalType":"uint256"}],"stateMutability":"view"},{"type":"function","name":"deals","inputs":[{"name":"","type":"uint256","internalType":"uint256"}],"outputs":[{"name":"buyer","type":"address","internalType":"address"},{"name":"productId","type":"uint256","internalType":"uint256"},{"name":"amount","type":"uint256","internalType":"uint256"},{"name":"buyerConfirmed","type":"bool","internalType":"bool"},{"name":"sellerConfirmed","type":"bool","internalType":"bool"},{"name":"isCompleted","type":"bool","internalType":"bool"}],"stateMutability":"view"},{"type":"function","name":"isBought","inputs":[],"outputs":[{"name":"","type":"bool","internalType":"bool"}],"stateMutability":"view"},{"type":"function","name":"quantityPerItem","inputs":[{"name":"","type":"string","internalType":"string"}],"outputs":[{"name":"","type":"uint256","internalType":"uint256"}],"stateMutability":"view"},{"type":"function","name":"ratingProduct","inputs":[{"name":"_seller","type":"address","internalType":"address"},{"name":"_productId","type":"string","internalType":"string"},{"name":"_ratingProduct","type":"uint8","internalType":"uint8"}],"outputs":[],"stateMutability":"nonpayable"},{"type":"function","name":"sellers","inputs":[{"name":"","type":"address","internalType":"address"}],"outputs":[{"name":"shopName","type":"string","internalType":"string"},{"name":"typeItemsNameSell","type":"string","internalType":"string"},{"name":"email","type":"string","internalType":"string"},{"name":"cerSellerId","type":"uint256","internalType":"uint256"},{"name":"addressWallet","type":"address","internalType":"address"},{"name":"rating","type":"uint8","internalType":"uint8"}],"stateMutability":"view"},{"type":"function","name":"uploadItems","inputs":[{"name":"_hashItems","type":"string","internalType":"string"},{"name":"_quantityPerItem","type":"uint256","internalType":"uint256"}],"outputs":[],"stateMutability":"nonpayable"},{"type":"function","name":"users","inputs":[{"name":"","type":"address","internalType":"address"}],"outputs":[{"name":"name","type":"string","internalType":"string"},{"name":"email","type":"string","internalType":"string"},{"name":"age","type":"uint8","internalType":"uint8"},{"name":"cerId","type":"uint256","internalType":"uint256"},{"name":"addressWallet","type":"address","internalType":"address"}],"stateMutability":"view"},{"type":"event","name":"DealCompleted","inputs":[{"name":"dealId","type":"uint256","indexed":false,"internalType":"uint256"}],"anonymous":false},{"type":"event","name":"DealConfirmed","inputs":[{"name":"dealId","type":"uint256","indexed":false,"internalType":"uint256"}],"anonymous":false},{"type":"event","name":"DealCreated","inputs":[{"name":"dealId","type":"uint256","indexed":false,"internalType":"uint256"},{"name":"buyer","type":"address","indexed":false,"internalType":"address"},{"name":"productId","type":"uint256","indexed":false,"internalType":"uint256"},{"name":"amount","type":"uint256","indexed":false,"internalType":"uint256"}],"anonymous":false},{"type":"event","name":"NewUser","inputs":[{"name":"_address","type":"address","indexed":false,"internalType":"address"}],"anonymous":false}],"bytecode":{"object":"0x6080604052612710600055612710600455348015601b57600080fd5b50611a4c8061002b6000396000f3fe608060405234801561001057600080fd5b50600436106100ff5760003560e01c8063985f544d11610097578063d1ef59a311610066578063d1ef59a3146102b7578063d6380257146102ca578063dec3456b146102dd578063feb6792e146102f057600080fd5b8063985f544d14610264578063a87430ba14610277578063b6c1b8271461029b578063ba464048146102ae57600080fd5b80630fb1193c116100d35780630fb1193c146101e05780631db7c015146101f357806363302e6e1461022c5780636d47ab721461023f57600080fd5b8062e2ca371461010457806302cb5b651461012657806303988f841461013b57806309b24952146101cd575b600080fd5b6006546101119060ff1681565b60405190151581526020015b60405180910390f35b610139610134366004611433565b610303565b005b6101906101493660046114ac565b60086020526000908152604090208054600182015460028301546003909301546001600160a01b0390921692909160ff808216916101008104821691620100009091041686565b604080516001600160a01b0390971687526020870195909552938501929092521515606084015215156080830152151560a082015260c00161011d565b6101396101db3660046114dc565b6103fa565b6101396101ee3660046114ac565b610626565b61021e61020136600461153a565b805160208183018101805160028252928201919093012091525481565b60405190815260200161011d565b61021e61023a366004611577565b610812565b61025261024d3660046115a1565b610843565b60405161011d96959493929190611613565b610139610272366004611677565b610a1e565b61028a6102853660046115a1565b610afc565b60405161011d9594939291906116bc565b6101396102a936600461170b565b610c49565b61021e60075481565b6101396102c536600461172d565b610dfb565b6101396102d8366004611677565b610eec565b6101396102eb3660046114ac565b610f7f565b6101396102fe3660046114ac565b6111a5565b6040805160a081018252848152602080820184905260ff8516828401526004546060830152336080830181905260009081526005909152919091208151819061034c9082611833565b50602082015160018201906103619082611833565b50604082015160028201805460ff191660ff90921691909117905560608201516003820155608090910151600491820180546001600160a01b0319166001600160a01b0390921691909117905580549060006103bc83611908565b90915550506040513381527f7ee9b70bf129b91a237044ce07c93c79f5562b96b53c04f7edaf7c9d6711f3d8906020015b60405180910390a1505050565b60065460ff1661040957600080fd5b60018160ff1610158015610421575060058160ff1611155b6104605760405162461bcd60e51b815260206004820152600b60248201526a4f6e6c79203120746f203560a81b60448201526064015b60405180910390fd5b6001600160a01b03831660009081526003602052604090819020905182919061048a908590611921565b9081526040805160209281900383019020805460ff191660ff94909416939093179092556001600160a01b0385166000908152600190915290812060050154815b818110156105e6576001600160a01b03861660009081526001602052604081206005018054839081106105005761050061193d565b906000526020600020018054610515906117ab565b80601f0160208091040260200160405190810160405280929190818152602001828054610541906117ab565b801561058e5780601f106105635761010080835404028352916020019161058e565b820191906000526020600020905b81548152906001019060200180831161057157829003601f168201915b5050506001600160a01b038a16600090815260036020526040908190209051939450926105be9250849150611921565b908152604051908190036020019020546105db9060ff1685611953565b9350506001016104cb565b506105f1818361196c565b6001600160a01b03959095166000908152600160205260409020600601805460ff191660ff9096169590951790945550505050565b600081815260086020526040902054336001600160a01b03909116036106aa5760405162461bcd60e51b815260206004820152603360248201527f596f752063616e6e6f74206265207468652073656c6c657220616e64206275796044820152726572206174207468652073616d652074696d6560681b6064820152608401610457565b33600090815260016020818152604080842085855260089092528320909101546005909101805490919081106106e2576106e261193d565b9060005260206000200180546106f7906117ab565b9050116107505760405162461bcd60e51b815260206004820152602160248201527f53656c6c657220646f6573206e6f74206861766520746869732070726f6475636044820152601d60fa1b6064820152608401610457565b600081815260086020526040902060030154610100900460ff16156107b75760405162461bcd60e51b815260206004820181905260248201527f4465616c20616c726561647920636f6e6669726d65642062792073656c6c65726044820152606401610457565b60008181526008602052604090819020600301805461ff001916610100179055517f9df29a48d557958defdbeb91dda0116b443663f2a358ab8947609973c5a7b51c906108079083815260200190565b60405180910390a150565b6009602052816000526040600020818154811061082e57600080fd5b90600052602060002001600091509150505481565b60016020526000908152604090208054819061085e906117ab565b80601f016020809104026020016040519081016040528092919081815260200182805461088a906117ab565b80156108d75780601f106108ac576101008083540402835291602001916108d7565b820191906000526020600020905b8154815290600101906020018083116108ba57829003601f168201915b5050505050908060010180546108ec906117ab565b80601f0160208091040260200160405190810160405280929190818152602001828054610918906117ab565b80156109655780601f1061093a57610100808354040283529160200191610965565b820191906000526020600020905b81548152906001019060200180831161094857829003601f168201915b50505050509080600201805461097a906117ab565b80601f01602080910402602001604051908101604052809291908181526020018280546109a6906117ab565b80156109f35780601f106109c8576101008083540402835291602001916109f3565b820191906000526020600020905b8154815290600101906020018083116109d657829003601f168201915b5050505060038301546004840154600690940154929390926001600160a01b03909116915060ff1686565b60005b33600090815260016020526040902060050154811015610af75782604051602001610a4c9190611921565b60408051601f19818403018152918152815160209283012033600090815260019093529120600501805483908110610a8657610a8661193d565b90600052602060002001604051602001610aa0919061198e565b6040516020818303038152906040528051906020012003610aef5781600284604051610acc9190611921565b90815260200160405180910390206000828254610ae99190611953565b90915550505b600101610a21565b505050565b600560205260009081526040902080548190610b17906117ab565b80601f0160208091040260200160405190810160405280929190818152602001828054610b43906117ab565b8015610b905780601f10610b6557610100808354040283529160200191610b90565b820191906000526020600020905b815481529060010190602001808311610b7357829003601f168201915b505050505090806001018054610ba5906117ab565b80601f0160208091040260200160405190810160405280929190818152602001828054610bd1906117ab565b8015610c1e5780601f10610bf357610100808354040283529160200191610c1e565b820191906000526020600020905b815481529060010190602001808311610c0157829003601f168201915b5050505060028301546003840154600490940154929360ff909116929091506001600160a01b031685565b3360009081526001602052604090206005018054829160029185908110610c7257610c7261193d565b90600052602060002001604051610c89919061198e565b9081526020016040518091039020541015610cd95760405162461bcd60e51b815260206004820152601060248201526f4e6f7420656e6f7567682073746f636b60801b6044820152606401610457565b6007805460009182610cea83611908565b909155506040805160c08101825233808252602080830188815283850188815260006060808701828152608080890184815260a08a018581528c8652600889528b86209a518b546001600160a01b0319166001600160a01b03909116178b5596516001808c0191909155955160028b01559151600390990180549251965161ffff1990931699151561ff00191699909917610100961515969096029590951762ff0000191662010000911515919091021790965584815260098452868120805492830181558152839020018690558451868152918201929092529283018790529082018590529192507fbc6766b1aeb04aa62b33edd56b7af6224700d40c85d8184e98db38767b86453b91016103ed565b6040805160e081018252848152602080820185905281830184905260008054606084810191909152336080850181905260a0850182905260c08501839052825260019092529290922081518190610e529082611833565b5060208201516001820190610e679082611833565b5060408201516002820190610e7c9082611833565b506060820151600382015560808201516004820180546001600160a01b0319166001600160a01b0390921691909117905560a08201518051610ec89160058401916020909101906112b3565b5060c091909101516006909101805460ff191660ff90921691909117905550505050565b336000908152600160208181526040832060050180549283018155835290912001610f178382611833565b5080600283604051610f299190611921565b908152604080519182900360209081018320939093553360009081526003909352822090610f58908590611921565b908152604051908190036020019020805460ff9290921660ff199092169190911790555050565b60008181526008602052604090206003015460ff16610fe05760405162461bcd60e51b815260206004820181905260248201527f427579657220686173206e6f7420636f6e6669726d656420746865206465616c6044820152606401610457565b600081815260086020526040902060030154610100900460ff166110505760405162461bcd60e51b815260206004820152602160248201527f53656c6c657220686173206e6f7420636f6e6669726d656420746865206465616044820152601b60fa1b6064820152608401610457565b60008181526008602052604090206003015462010000900460ff16156110b15760405162461bcd60e51b81526020600482015260166024820152751119585b08185b1c9958591e4818dbdb5c1b195d195960521b6044820152606401610457565b60008181526008602052604090819020600301805462ff0000191662010000179055517fe70f0403e69c896bbcf61b8ca0224ab04d6de1ade440bc896049efe6fe4e0731906111039083815260200190565b60405180910390a16006805460ff19166001908117909155600082815260086020818152604080842060028082015482546001600160a01b031687528785529286209588905293909252930154600590920180549192909181106111695761116961193d565b90600052602060002001604051611180919061198e565b9081526020016040518091039020600082825461119d9190611a03565b909155505050565b6000818152600860205260409020546001600160a01b031633146112035760405162461bcd60e51b81526020600482015260156024820152742cb7ba9030b932903737ba103a343290313abcb2b960591b6044820152606401610457565b60008181526008602052604090206003015460ff16156112655760405162461bcd60e51b815260206004820152601f60248201527f4465616c20616c726561647920636f6e6669726d6564206279206275796572006044820152606401610457565b60008181526008602052604090819020600301805460ff19166001179055517f9df29a48d557958defdbeb91dda0116b443663f2a358ab8947609973c5a7b51c906108079083815260200190565b8280548282559060005260206000209081019282156112f9579160200282015b828111156112f957825182906112e99082611833565b50916020019190600101906112d3565b50611305929150611309565b5090565b8082111561130557600061131d8282611326565b50600101611309565b508054611332906117ab565b6000825580601f10611342575050565b601f0160209004906000526020600020908101906113609190611363565b50565b5b808211156113055760008155600101611364565b634e487b7160e01b600052604160045260246000fd5b600082601f83011261139f57600080fd5b813567ffffffffffffffff8111156113b9576113b9611378565b604051601f8201601f19908116603f0116810167ffffffffffffffff811182821017156113e8576113e8611378565b60405281815283820160200185101561140057600080fd5b816020850160208301376000918101602001919091529392505050565b803560ff8116811461142e57600080fd5b919050565b60008060006060848603121561144857600080fd5b833567ffffffffffffffff81111561145f57600080fd5b61146b8682870161138e565b93505061147a6020850161141d565b9150604084013567ffffffffffffffff81111561149657600080fd5b6114a28682870161138e565b9150509250925092565b6000602082840312156114be57600080fd5b5035919050565b80356001600160a01b038116811461142e57600080fd5b6000806000606084860312156114f157600080fd5b6114fa846114c5565b9250602084013567ffffffffffffffff81111561151657600080fd5b6115228682870161138e565b9250506115316040850161141d565b90509250925092565b60006020828403121561154c57600080fd5b813567ffffffffffffffff81111561156357600080fd5b61156f8482850161138e565b949350505050565b6000806040838503121561158a57600080fd5b611593836114c5565b946020939093013593505050565b6000602082840312156115b357600080fd5b6115bc826114c5565b9392505050565b60005b838110156115de5781810151838201526020016115c6565b50506000910152565b600081518084526115ff8160208601602086016115c3565b601f01601f19169290920160200192915050565b60c08152600061162660c08301896115e7565b828103602084015261163881896115e7565b9050828103604084015261164c81886115e7565b606084019690965250506001600160a01b0392909216608083015260ff1660a0909101529392505050565b6000806040838503121561168a57600080fd5b823567ffffffffffffffff8111156116a157600080fd5b6116ad8582860161138e565b95602094909401359450505050565b60a0815260006116cf60a08301886115e7565b82810360208401526116e181886115e7565b60ff969096166040840152505060608101929092526001600160a01b031660809091015292915050565b6000806040838503121561171e57600080fd5b50508035926020909101359150565b60008060006060848603121561174257600080fd5b833567ffffffffffffffff81111561175957600080fd5b6117658682870161138e565b935050602084013567ffffffffffffffff81111561178257600080fd5b61178e8682870161138e565b925050604084013567ffffffffffffffff81111561149657600080fd5b600181811c908216806117bf57607f821691505b6020821081036117df57634e487b7160e01b600052602260045260246000fd5b50919050565b601f821115610af757806000526020600020601f840160051c8101602085101561180c5750805b601f840160051c820191505b8181101561182c5760008155600101611818565b5050505050565b815167ffffffffffffffff81111561184d5761184d611378565b6118618161185b84546117ab565b846117e5565b6020601f821160018114611895576000831561187d5750848201515b600019600385901b1c1916600184901b17845561182c565b600084815260208120601f198516915b828110156118c557878501518255602094850194600190920191016118a5565b50848210156118e35786840151600019600387901b60f8161c191681555b50505050600190811b01905550565b634e487b7160e01b600052601160045260246000fd5b60006001820161191a5761191a6118f2565b5060010190565b600082516119338184602087016115c3565b9190910192915050565b634e487b7160e01b600052603260045260246000fd5b80820180821115611966576119666118f2565b92915050565b60008261198957634e487b7160e01b600052601260045260246000fd5b500490565b600080835461199c816117ab565b6001821680156119b357600181146119c8576119f8565b60ff19831686528115158202860193506119f8565b86600052602060002060005b838110156119f0578154888201526001909101906020016119d4565b505081860193505b509195945050505050565b81810381811115611966576119666118f256fea2646970667358221220a98455b34e7ce3df2f214538c87cbd520d34df6c48d00fa255d71b2f8a55ea2764736f6c634300081a0033","linkReferences":{}},"methodIdentifiers":{"SignUp(string,uint8,string)":"02cb5b65","addQuantifyItems(string,uint256)":"985f544d","buyerDeals(address,uint256)":"63302e6e","completeDeal(uint256)":"dec3456b","confirmBuyerDeal(uint256)":"feb6792e","confirmSellerDeal(uint256)":"0fb1193c","createDeal(uint256,uint256)":"b6c1b827","createSeller(string,string,string)":"d1ef59a3","dealId()":"ba464048","deals(uint256)":"03988f84","isBought()":"00e2ca37","quantityPerItem(string)":"1db7c015","ratingProduct(address,string,uint8)":"09b24952","sellers(address)":"6d47ab72","uploadItems(string,uint256)":"d6380257","users(address)":"a87430ba"},"id":1}