{"abi":[{"type":"function","name":"SignUp","inputs":[{"name":"_name","type":"string","internalType":"string"},{"name":"_age","type":"uint8","internalType":"uint8"},{"name":"_email","type":"string","internalType":"string"}],"outputs":[],"stateMutability":"nonpayable"},{"type":"function","name":"users","inputs":[{"name":"","type":"address","internalType":"address"}],"outputs":[{"name":"name","type":"string","internalType":"string"},{"name":"email","type":"string","internalType":"string"},{"name":"age","type":"uint8","internalType":"uint8"},{"name":"cerId","type":"uint256","internalType":"uint256"},{"name":"addressWallet","type":"address","internalType":"address"}],"stateMutability":"view"},{"type":"event","name":"NewUser","inputs":[{"name":"_address","type":"address","indexed":false,"internalType":"address"}],"anonymous":false}],"bytecode":{"object":"0x6080604052612710600055348015601557600080fd5b5061064f806100256000396000f3fe608060405234801561001057600080fd5b50600436106100365760003560e01c806302cb5b651461003b578063a87430ba14610050575b600080fd5b61004e610049366004610364565b61007d565b005b61006361005e3660046103e5565b610172565b60405161007495949392919061045b565b60405180910390f35b6040805160a081018252848152602080820184905260ff85168284015260008054606084015233608084018190528152600190915291909120815181906100c49082610533565b50602082015160018201906100d99082610533565b50604082015160028201805460ff191660ff90921691909117905560608201516003820155608090910151600490910180546001600160a01b0319166001600160a01b03909216919091179055600080549080610135836105f2565b90915550506040513381527f7ee9b70bf129b91a237044ce07c93c79f5562b96b53c04f7edaf7c9d6711f3d89060200160405180910390a1505050565b60016020526000908152604090208054819061018d906104aa565b80601f01602080910402602001604051908101604052809291908181526020018280546101b9906104aa565b80156102065780601f106101db57610100808354040283529160200191610206565b820191906000526020600020905b8154815290600101906020018083116101e957829003601f168201915b50505050509080600101805461021b906104aa565b80601f0160208091040260200160405190810160405280929190818152602001828054610247906104aa565b80156102945780601f1061026957610100808354040283529160200191610294565b820191906000526020600020905b81548152906001019060200180831161027757829003601f168201915b5050505060028301546003840154600490940154929360ff909116929091506001600160a01b031685565b634e487b7160e01b600052604160045260246000fd5b600082601f8301126102e657600080fd5b813567ffffffffffffffff811115610300576103006102bf565b604051601f8201601f19908116603f0116810167ffffffffffffffff8111828210171561032f5761032f6102bf565b60405281815283820160200185101561034757600080fd5b816020850160208301376000918101602001919091529392505050565b60008060006060848603121561037957600080fd5b833567ffffffffffffffff81111561039057600080fd5b61039c868287016102d5565b935050602084013560ff811681146103b357600080fd5b9150604084013567ffffffffffffffff8111156103cf57600080fd5b6103db868287016102d5565b9150509250925092565b6000602082840312156103f757600080fd5b81356001600160a01b038116811461040e57600080fd5b9392505050565b6000815180845260005b8181101561043b5760208185018101518683018201520161041f565b506000602082860101526020601f19601f83011685010191505092915050565b60a08152600061046e60a0830188610415565b82810360208401526104808188610415565b60ff969096166040840152505060608101929092526001600160a01b031660809091015292915050565b600181811c908216806104be57607f821691505b6020821081036104de57634e487b7160e01b600052602260045260246000fd5b50919050565b601f82111561052e57806000526020600020601f840160051c8101602085101561050b5750805b601f840160051c820191505b8181101561052b5760008155600101610517565b50505b505050565b815167ffffffffffffffff81111561054d5761054d6102bf565b6105618161055b84546104aa565b846104e4565b6020601f821160018114610595576000831561057d5750848201515b600019600385901b1c1916600184901b17845561052b565b600084815260208120601f198516915b828110156105c557878501518255602094850194600190920191016105a5565b50848210156105e35786840151600019600387901b60f8161c191681555b50505050600190811b01905550565b60006001820161061257634e487b7160e01b600052601160045260246000fd5b506001019056fea2646970667358221220d67eb0f70e3878ced5af33d3c8a56a389f6b6833a612dd4c72e170607e4e8df964736f6c634300081a0033","linkReferences":{}},"methodIdentifiers":{"SignUp(string,uint8,string)":"02cb5b65","users(address)":"a87430ba"},"id":2}