{"abi":[{"type":"function","name":"addQuantifyItems","inputs":[{"name":"_hashItems","type":"string","internalType":"string"},{"name":"_addQuantityItems","type":"uint256","internalType":"uint256"}],"outputs":[],"stateMutability":"nonpayable"},{"type":"function","name":"createSeller","inputs":[{"name":"_shopName","type":"string","internalType":"string"},{"name":"_typeItemsNameSell","type":"string","internalType":"string"},{"name":"_email","type":"string","internalType":"string"}],"outputs":[],"stateMutability":"nonpayable"},{"type":"function","name":"quantityPerItem","inputs":[{"name":"","type":"string","internalType":"string"}],"outputs":[{"name":"","type":"uint256","internalType":"uint256"}],"stateMutability":"view"},{"type":"function","name":"sellers","inputs":[{"name":"","type":"address","internalType":"address"}],"outputs":[{"name":"shopName","type":"string","internalType":"string"},{"name":"typeItemsNameSell","type":"string","internalType":"string"},{"name":"email","type":"string","internalType":"string"},{"name":"cerSellerId","type":"uint256","internalType":"uint256"},{"name":"addressWallet","type":"address","internalType":"address"},{"name":"rating","type":"uint8","internalType":"uint8"}],"stateMutability":"view"},{"type":"function","name":"uploadItems","inputs":[{"name":"_hashItems","type":"string","internalType":"string"},{"name":"_quantityPerItem","type":"uint256","internalType":"uint256"}],"outputs":[],"stateMutability":"nonpayable"}],"bytecode":{"object":"0x6080604052612710600055348015601557600080fd5b50610ae6806100256000396000f3fe608060405234801561001057600080fd5b50600436106100575760003560e01c80631db7c0151461005c5780636d47ab721461009a578063985f544d146100bf578063d1ef59a3146100d4578063d6380257146100e7575b600080fd5b61008761006a3660046106a1565b805160208183018101805160028252928201919093012091525481565b6040519081526020015b60405180910390f35b6100ad6100a83660046106de565b6100fa565b6040516100919695949392919061075e565b6100d26100cd3660046107c2565b6102d5565b005b6100d26100e2366004610807565b6103b3565b6100d26100f53660046107c2565b6104a4565b6001602052600090815260409020805481906101159061089b565b80601f01602080910402602001604051908101604052809291908181526020018280546101419061089b565b801561018e5780601f106101635761010080835404028352916020019161018e565b820191906000526020600020905b81548152906001019060200180831161017157829003601f168201915b5050505050908060010180546101a39061089b565b80601f01602080910402602001604051908101604052809291908181526020018280546101cf9061089b565b801561021c5780601f106101f15761010080835404028352916020019161021c565b820191906000526020600020905b8154815290600101906020018083116101ff57829003601f168201915b5050505050908060020180546102319061089b565b80601f016020809104026020016040519081016040528092919081815260200182805461025d9061089b565b80156102aa5780601f1061027f576101008083540402835291602001916102aa565b820191906000526020600020905b81548152906001019060200180831161028d57829003601f168201915b5050505060038301546004840154600690940154929390926001600160a01b03909116915060ff1686565b60005b336000908152600160205260409020600501548110156103ae578260405160200161030391906108d5565b60408051601f1981840301815291815281516020928301203360009081526001909352912060050180548390811061033d5761033d6108f1565b906000526020600020016040516020016103579190610907565b60405160208183030381529060405280519060200120036103a6578160028460405161038391906108d5565b908152602001604051809103902060008282546103a0919061097c565b90915550505b6001016102d8565b505050565b6040805160e081018252848152602080820185905281830184905260008054606084810191909152336080850181905260a0850182905260c0850183905282526001909252929092208151819061040a90826109f1565b506020820151600182019061041f90826109f1565b506040820151600282019061043490826109f1565b506060820151600382015560808201516004820180546001600160a01b0319166001600160a01b0390921691909117905560a08201518051610480916005840191602090910190610537565b5060c091909101516006909101805460ff191660ff90921691909117905550505050565b3360009081526001602081815260408320600501805492830181558352909120016104cf83826109f1565b50806002836040516104e191906108d5565b9081526040805191829003602090810183209390935533600090815260039093528220906105109085906108d5565b908152604051908190036020019020805460ff9290921660ff199092169190911790555050565b82805482825590600052602060002090810192821561057d579160200282015b8281111561057d578251829061056d90826109f1565b5091602001919060010190610557565b5061058992915061058d565b5090565b808211156105895760006105a182826105aa565b5060010161058d565b5080546105b69061089b565b6000825580601f106105c6575050565b601f0160209004906000526020600020908101906105e491906105e7565b50565b5b8082111561058957600081556001016105e8565b634e487b7160e01b600052604160045260246000fd5b600082601f83011261062357600080fd5b813567ffffffffffffffff81111561063d5761063d6105fc565b604051601f8201601f19908116603f0116810167ffffffffffffffff8111828210171561066c5761066c6105fc565b60405281815283820160200185101561068457600080fd5b816020850160208301376000918101602001919091529392505050565b6000602082840312156106b357600080fd5b813567ffffffffffffffff8111156106ca57600080fd5b6106d684828501610612565b949350505050565b6000602082840312156106f057600080fd5b81356001600160a01b038116811461070757600080fd5b9392505050565b60005b83811015610729578181015183820152602001610711565b50506000910152565b6000815180845261074a81602086016020860161070e565b601f01601f19169290920160200192915050565b60c08152600061077160c0830189610732565b82810360208401526107838189610732565b905082810360408401526107978188610732565b606084019690965250506001600160a01b0392909216608083015260ff1660a0909101529392505050565b600080604083850312156107d557600080fd5b823567ffffffffffffffff8111156107ec57600080fd5b6107f885828601610612565b95602094909401359450505050565b60008060006060848603121561081c57600080fd5b833567ffffffffffffffff81111561083357600080fd5b61083f86828701610612565b935050602084013567ffffffffffffffff81111561085c57600080fd5b61086886828701610612565b925050604084013567ffffffffffffffff81111561088557600080fd5b61089186828701610612565b9150509250925092565b600181811c908216806108af57607f821691505b6020821081036108cf57634e487b7160e01b600052602260045260246000fd5b50919050565b600082516108e781846020870161070e565b9190910192915050565b634e487b7160e01b600052603260045260246000fd5b60008083546109158161089b565b60018216801561092c576001811461094157610971565b60ff1983168652811515820286019350610971565b86600052602060002060005b838110156109695781548882015260019091019060200161094d565b505081860193505b509195945050505050565b8082018082111561099d57634e487b7160e01b600052601160045260246000fd5b92915050565b601f8211156103ae57806000526020600020601f840160051c810160208510156109ca5750805b601f840160051c820191505b818110156109ea57600081556001016109d6565b5050505050565b815167ffffffffffffffff811115610a0b57610a0b6105fc565b610a1f81610a19845461089b565b846109a3565b6020601f821160018114610a535760008315610a3b5750848201515b600019600385901b1c1916600184901b1784556109ea565b600084815260208120601f198516915b82811015610a835787850151825560209485019460019092019101610a63565b5084821015610aa15786840151600019600387901b60f8161c191681555b50505050600190811b0190555056fea26469706673582212200af0c0dfb5ff714de258bd845fb7567bc7b32ef7eae3921df9a8dae9ad5e947664736f6c634300081a0033","linkReferences":{}},"methodIdentifiers":{"addQuantifyItems(string,uint256)":"985f544d","createSeller(string,string,string)":"d1ef59a3","quantityPerItem(string)":"1db7c015","sellers(address)":"6d47ab72","uploadItems(string,uint256)":"d6380257"},"id":1}